:020000040800F2
:10000000500B0020A1010008D7210008911E000814
:10001000D521000873130008D52500080000000052
:100020000000000000000000000000006F25000834
:1000300075130008000000006D25000871250008F8
:10004000BB010008BB010008BB010008BB010008A0
:10005000BB010008BB010008BB010008BB01000890
:10006000BB010008BB010008BB010008BB01000880
:10007000BB010008BB010008BB010008BB01000870
:10008000BB010008BB010008BB010008BB01000860
:10009000BB010008BB010008BB010008BB01000850
:1000A000BB010008BB010008BB010008BB01000840
:1000B000BB010008BB010008BB010008BB01000830
:1000C000BB010008BB010008BB010008BB01000820
:1000D000BB010008BB010008BB010008BB01000810
:1000E000BB010008BB010008BB01000800F002F8DA
:1000F00000F047F80AA090E8000C82448344AAF17B
:100100000107DA4501D100F03CF8AFF2090EBAE878
:100110000F0013F0010F18BFFB1A43F0010318473B
:100120005029000070290000103A24BF78C878C117
:10013000FAD8520724BF30C830C144BF04680C60ED
:10014000704700000023002400250026103A28BF35
:1001500078C1FBD8520728BF30C148BF0B60704739
:10016000662902F00C83002070471FB500F0C4FB25
:1001700004000020002102F075FAE0601FBD10B5F8
:1001800010BD00F0B9FC1146FFF7EFFF02F04EFA88
:1001900000F0D7FC03B4FFF7F2FF03BC00F01AFD38
:1001A0000948804709480047FEE7FEE7FEE7FEE70B
:1001B000FEE7FEE7FEE7FEE7FEE7FEE70448054947
:1001C000054A064B70470000D3250008ED000008E3
:1001D00050050020500B0020500700205007002041
:1001E0000FB41CB5074B06AA7B44694600900598DE
:1001F00000F037FB0020694600F046FB1CBC5DF8B0
:1002000014FB00009D0600002DE9F0474FF0000AA6
:1002100089460446C0F820A02046E16888470028A7
:1002200076D0252806D0D4E901219047206A401CC9
:100230002062F1E7E168204600258847C4F81CA049
:1002400006460027C4F818A02A2E09D0304602F02E
:10025000E6F938B304EB8708303EC8F8186019E0B7
:1002600059F8041B204604EB87029161E168884736
:10027000012F064618D1E069002820DA25F0200574
:100280001DE0D8F8180000EB800006EB4000303885
:10029000C8F818002046E1688847064602F0BFF912
:1002A0000028EED1012F0AD02E2E08D12046E16879
:1002B00088477F1C0646022F45F02005C4DBA06955
:1002C000002803DA404245F00105A061E80701D0AB
:1002D00025F01005B6B1A6F14100192802D8203644
:1002E00045F400654A463146204625604D46FFF7F5
:1002F00037FF58B1012806D0ED1D25F0070000F1A9
:10030000080989E704E005F1040985E730468AE732
:10031000206ABDE8F087032A40F2308010F0030C19
:1003200000F0158011F8013BBCF1020F624498BF48
:1003300011F801CB00F8013B38BF11F8013BA2F1E5
:10034000040298BF00F801CB38BF00F8013B11F060
:10035000030300F09E82083AC0F0088051F8043B85
:10036000083A51F804CBA0E80810F5E7121D5CBF6D
:1003700051F8043B40F8043BAFF30080D20724BFA0
:1003800011F8013B11F801CB48BF11F8012B24BF34
:1003900000F8013B00F801CB48BF00F8012B704783
:1003A0004FF000020429C0F0128010F0030C00F09E
:1003B0001B80CCF1040CBCF1020F18BF00F8012B1C
:1003C000A8BF20F8022BA1EB0C0100F00DB85FEAEA
:1003D000C17C24BF00F8012B00F8012B48BF00F8B6
:1003E000012B70474FF0000200B513469446964625
:1003F000203922BFA0E80C50A0E80C50B1F1200138
:10040000BFF4F7AF090728BFA0E80C5048BF0CC0E5
:100410005DF804EB890028BF40F8042B08BF704743
:1004200048BF20F8022B11F0804F18BF00F8012BB5
:10043000704770477047704770472DE9FF4F0C4673
:100440001E464FF0FF378BB0D2E90001DDF8608027
:100450000A908A46C1F30A5505B93D46002108466F
:100460004FF00000BAF1000F00F4400005DA00EB95
:1004700080004FF4400101EA50004FEA9059B9F171
:10048000010F00DDB9460A9850EA4A000ED044F642
:100490001050A5F2FF3545432F14B8F1000F1ED0C0
:1004A0007542291E1EDDC9F100021CE0B8F1010FE2
:1004B0004FF0000001D0302103E0F24305E0215469
:1004C000401CB042FBDB30460022002121540B9936
:1004D000C1F80880C1E900200FB0BDE8F08FBD1B56
:1004E0006D1CDEE74A4600DA694206A800F08EFA83
:1004F00006AB93E8070003AB83E8070050460A9970
:1005000000F06FFB8DE80700A0F500501F38009049
:100510000398002D0ADD42F21F014A4608440023D9
:1005200003A90390684600F0D8FD09E0A0F500504B
:100530004A461F38002303A90390684600F0E2FDF5
:100540008DE807000004000C03D04FF0FF30410895
:1005500000E01046B8F1000F03D0002200921546CB
:100560001EE0751E05D400F0CBF9303262556D1EC9
:10057000F9D5B3460122084302D000227F1C04E0D3
:100580002078302801D100227F1E002A099784D0CC
:100590001DE0112D07DA00F0B3F9303262556D1C01
:1005A00050EA0102F5D1084302D00098C8B10EE02C
:1005B0000021681E05E0235C625C63542254401EE7
:1005C000491C8142F7DBAB46A81B401E0990002066
:1005D00004F80B000B98099AC0F80880C0E9002BBA
:1005E0007AE711264FF0000857E72DE9F04F8846CB
:1005F0000446D21D22F0070191B0D1E90001CDE9F6
:100600000A0101F0E8FF02460B98C00F01D02D202F
:1006100007E02068810701D52B2002E0202101EAB4
:10062000C000032A099001D0072A05DB0346414692
:10063000204600F0ABF90BE12078800601D5E06997
:1006400000E00620B8F1650F814606D0B8F1660FCC
:1006500018D0B8F1670F70D131E00020B9F1110F57
:10066000009001DB112301E009F101030AAA01A9AD
:100670000CA8FFF7E2FEDDE90C70002609F1010588
:10068000834647E001204B4600904FF000470AAAFE
:1006900001A90CA8FFF7D1FEDDE90DB00C995D466C
:1006A000002610B909F101000D18B9EB050003D4BB
:1006B000C0F1FF3609F10105A5EB09002BE0B9F106
:1006C000010F01DA4FF001090020B9F1110F00907C
:1006D000484601DD112300E003460AAA01A90CA83F
:1006E000FFF7ABFEDDE90C704D460026834620780F
:1006F00000070AD4AB4500DA5D4601A8012D04DDF0
:10070000411911F8011C302907D04F4502DA17F1C1
:10071000040F04DA012082460FE06D1EEEE7002F81
:1007200002DCED1B3E4403E0781CA84200DD7D1C8A
:10073000B81B00F1010A4FF000472078000703D4EE
:10074000AA4501DB4FF0FF3A0021B7F1004F0DF150
:1007500043088DF8431024D002202B23002F01DA08
:100760007F422D230A21021EA0F1010000DC5FB1AF
:1007700097FBF1FC97FBF1F201FB1C7C17460CF197
:10078000300C08F801CDEEE7A8F1010003702188D4
:10079000090501D5452100E06521A0F1010800F817
:1007A000011C09980FA9A1EB0807FF1D00B101204A
:1007B000411901EBEA70A1693844081A401EA06192
:1007C0002078C00602D42046AFF30080099828B1F3
:1007D000D4E901219047206A401C20622078C0069D
:1007E00022D52046AFF300801EE0002E04DBB34587
:1007F00002DD01A8805D00E03020D4E901219047AE
:10080000206A401C2062761CAAF101005FEA000AFF
:100810000AD100F071F8C0680168405CD4E9012198
:100820009047206A401C2062281EA5F10105DCDCEF
:1008300007E0D4E9012118F8010B9047206A401C19
:100840002062381EA7F10107F3DC2046AFF30080D9
:10085000032011B041E6000001694A1C02610878DA
:10086000704700B58FB0CDE90131002105910549F0
:100870007944CDE9031011466846FFF7C5FC0FB077
:1008800000BD0000E5FFFFFF0A6802F8010B0A60E7
:10089000704710B5203AC0F00B80B1E81850203AEC
:1008A000A0E81850B1E81850A0E81850BFF4F5AF10
:1008B0005FEA027C24BFB1E81850A0E8185044BF9A
:1008C00018C918C0BDE810405FEA827C24BF51F807
:1008D000043B40F8043B08BF7047D20728BF31F8FB
:1008E000023B48BF11F8012B28BF20F8023B48BF4C
:1008F00000F8012B70470000004870470C050020ED
:1009000030B5B0F10A024FEA900E71F100034EEAE1
:10091000817EB0EB0E0061EB91014FEA101E4EEAB2
:10092000017E10EB0E0041EB11114FEA102E4EEA42
:10093000016E10EB0E0041EB11214FEA104E4EEA12
:10094000014E10EB0E0041EB1141401841F1000146
:100950004FEAD00040EA41704FEAD10110EB800528
:100960004FEA810444EA907444EB01046D1944EBAE
:100970000404521BA3414FF0000348BF0A3200D5C4
:1009800030BD401C41F1000130BD00002DE9F041B7
:100990001F46044603260168072A01F4006004DBB1
:1009A00008B116A505E016A503E008B115A500E0FD
:1009B00015A521F010002060A069C01EA0610FB134
:1009C000401EA0612046AFF300804FB1D4E9012161
:1009D00038469047206A401C2062C01C206206E016
:1009E000206AFAE7D4E9012115F8010B9047761E39
:1009F000F8D22046AFF30080BDE8F0814E414E00B2
:100A00006E616E00494E4600696E66002DE9F04742
:100A1000814616468AB0354878440DC88DE80D00E9
:100A200032487844801C03AC0DC884E80D0041F6C0
:100A30009B300844372190FBF1F290FBF1F5A5F1D2
:100A4000800501FB12041B3C02D56442012000E03A
:100A50000020DFF898A080460027FA44AAF1BE0AD9
:100A60000EE0E0070AD03246684607EB4701012353
:100A70000AEB810100F046FB8DE8070064107F1C43
:100A8000002CEED1194F7F44AE3F19E0E80715D096
:100A900007EB04100DF1180A90E80E008AE80E002A
:100AA000C068F04201D1981908903246012306A986
:100AB00003A800F027FB03AB83E807006D10641C5C
:100AC000002DE3D14FF0010332466946B8F1000F23
:100AD00003A802D000F001FB01E000F013FBC9E91C
:100AE0000001C9F808200AB0BDE8F0873C200000EA
:100AF00000487047EC0400207546FFF7F9FFAE464A
:100B000005006946534620F00700854618B020B519
:100B1000FFF754FBBDE820404FF000064FF0000700
:100B20004FF000084FF0000B21F00701AC46ACE895
:100B3000C009ACE8C009ACE8C009ACE8C0098D4602
:100B4000704710B50446AFF300802046BDE8104062
:100B5000FFF720BB4FF0013C50F8042B51F8043B49
:100B60009A4221D1A2EB0C03934313EACC1317D181
:100B700050F8042B51F8043B9A4215D1A2EB0C0318
:100B8000934313EACC130BD150F8042B51F8043BD8
:100B90009A4209D1A2EB0C03934313EACC13DBD0A6
:100BA0004FF00000704700BFD01A01BAB1FA81F1CE
:100BB00001F0180122FA01F0CB40C1F12001DBB2B3
:100BC000C0B2C01A2CFA01F3D11A914311EAC31131
:100BD000E6D1704701491820ABBEFEE726000200AF
:100BE00070475FEA400C08BF91F0000F4FEA8C237A
:100BF0004FEAC12243EA51514FEA1C5018BF00F599
:100C0000F0404FEA300018BF41F000415FEA6C5CF1
:100C100000F02980BCF1FF3F08BF40F080407047E2
:100C2000130C06BF12044FF0100C4FF0000C130E03
:100C300004BF12020CF1080C130F04BF12010CF1D7
:100C4000040C930F04BF92000CF1020CD30F04BFED
:100C500052000CF1010C11464FF00002A0F11F00F0
:100C6000A0EB0C00704711F0004F08BF704731F047
:100C700000413FF4D5AF0B0C06BF09044FF0100C38
:100C80004FF0000C0B0E04BF09020CF1080C0B0F07
:100C900004BF09010CF1040C8B0F04BF89000CF197
:100CA000020CCB0F04BF49000CF1010CCCF1200366
:100CB000A0EB0C0022FA03F302FA0CF241EA030162
:100CC00000F10100704720F07F4C80EA030023F020
:100CD0007F47ACEB070303F57C5300F0004003F1C2
:100CE000FF032DE980494FEA154B09B44FEA14433D
:100CF00025EA0B4E24EA03480FF2042606EB1327DD
:100D000049083E785FEA320203FB0667C7F5000731
:100D100007FB06F64FEA54374FEAD64606F10206BD
:100D200007FB066CCCF1005C4FEA1C472CEA074C31
:100D300007FB06F40CFB06F504EB15464FEA961686
:100D400034BF00204FF000404FEAD13706FB07FCCC
:100D50004FEA1C4C0CFB0BF7D21B03FB0CF761EBAF
:100D600007010CFB0EF7B0EB074072EB17420CFBD0
:100D700008F734BFA2EB0742B2EB074261EB174121
:100D80004FEA0C444FEA910706FB07FC4FEA1C4C64
:100D90000CFB0BF7B0EBC74072EB573203FB0CF7C1
:100DA00034BFA2EBC742B2EBC74261EB57310CFB39
:100DB0000EF7B0EBC70072EB57720CFB08F734BFAD
:100DC000A2EBC702B2EBC70261EB5771039F4FEA78
:100DD000816141EA921104EBCC044FEAD1374FEA2A
:100DE000826206FB07FC42EA90124FEA80604FEAFB
:100DF0001C4C0CFB0BF7D21B03FB0CF761EB070140
:100E00000CFB0EF7B0EB074072EB17420CFB08F738
:100E100034BFA2EB0742B2EB074261EB17414FEA46
:100E20008C554FEA910704EB9C2406FB07FC4FEA24
:100E30001C4C0CFB0BF7B0EBC74072EB573203FBBB
:100E40000CF734BFA2EBC742B2EBC74261EB57319C
:100E50000CFB0EF7B0EBC70072EB57720CFB08F7F8
:100E600034BFA2EBC702B2EBC70261EB577115EBBF
:100E70004C254FEA816141EA92114FEA82624FEAC2
:100E8000D13742EA901206FB07FC44F100044FEA16
:100E900080604FEA1C4C0CFB0BF7D21B03FB0CF7DA
:100EA00061EB07010CFB0EF7B0EB074072EB17424A
:100EB0000CFB08F734BFA2EB0742B2EB074261EB31
:100EC000174115EB1C154FEA813141EA92414FEA77
:100ED000823242EA90424FEA80304FEA0C7644F187
:100EE000000448EA03434EEA0B484FF0000EB2EB11
:100EF000080C71EB030724BF624639464EEB0E0E19
:100F00004FF0000B0018524149414BEB0B0BB2EB79
:100F1000080C71EB03077BF1000B24BF62463946D6
:100F20004EEB0E0E4FF0000B0018524149414BEBB7
:100F30000B0BB2EB080C71EB03077BF1000B24BF2A
:100F4000624639464EEB0E0E51EA020718BF46F0D4
:100F5000010616EB0E7655F1000254F1000103D59F
:100F6000BDE88901BDE80088BDE88901BDE8004809
:100F7000B619524141EB0101A3F101037047808092
:100F80007F7E7D7C7B7A79787776767574737271E3
:100F900071706F6E6E6D6C6C6B6A6A69686867669B
:100FA00066656464636362616160605F5F5E5E5D2D
:100FB0005D5C5C5B5B5A5A595958585757565655A1
:100FC00055555454535352525251515050504F4F03
:100FD0004F4E4E4D4D4D4C4C4C4B4B4B4A4A4A4953
:100FE0004949484848474747474646464545454496
:100FF0004444444343434342424242414141002B23
:101000009C4630D477002BD01CB54FEA370703B489
:101010004FF010004FF01001BAF1000F06D0BCF1F4
:10102000000FDCBF40F0080040F008014FF0000066
:101030000FBCBDE810400BF1010BBBF1010F08BF65
:101040005FEA170722BF12F1010211F101014FF00F
:10105000004143F1000300F0004043EA0000704704
:10106000F9D35708D0E746EA064613F1400F4FEA96
:1010700016461FDD13F1200FDFBF16430A4600217D
:1010800020335B42BED0C3F1200746EA064602FA8F
:1010900007F74FEA164646EA0706C3F1200722FA89
:1010A00003F201FA07F721FA03F14FF0000342EAD5
:1010B0000702A7E746EA020646EA06464FEA164650
:1010C00046EA0106BCBF46EA0646360C4FF000036E
:1010D0004FF000024FF0000194E72DE9804C9A4652
:1010E000934670B491E8380007C831EA400C48BF15
:1010F00034EA430C03D5FFF7E6FDFFF780FFF0BCB1
:10110000BDE8008C2DE9804C9A46934670B491E876
:10111000380007C810F0804F08BF13F0804F03D18C
:1011200000F005F8FFF76BFFF0BCBDE8008C20F085
:101130007F4780EA030023F07F4C07EB0C03A3F505
:101140007C5300F00040A3F1FE0392F0000F00F08A
:10115000B38095F0000F00F077802DE901494FEA48
:1011600011404FEA144621EA004800FB06FC24EA3D
:10117000064708FB06F607FB08F800FB07F718EB25
:1011800006484CEB164C4FEA124B18EB07484FEA57
:1011900015464CEB174022EA0B4E0BFB06FC25EAEA
:1011A00006470EFB06F607FB0EFE0BFB07F71EEBD2
:1011B000064E4CEB164C4FF000061EEB074E4CEB68
:1011C000174B18EB0B0840F1000018EB0E0B58EB17
:1011D000000840F100008F1A4FF000013CBFC943E6
:1011E000661B14BFB5EB040C00213CBFC943F61BC2
:1011F0004FEA17444EEA8E0E27EA04454FEA1C4791
:1012000004FB07622CEA074C05FB07F70CFB05F60D
:1012100004FB0CFC16EB074642EB174216EB0C46A0
:1012200042EB1C421BEB060658EB0202414146EA28
:101230009E0601D5BDE80189B619524141EB010175
:10124000A3F10103BDE801894FEA14454FEA1147B4
:1012500024EA054621EA074C05FB07F406FB07F7DD
:101260000CFB06F105FB0CFC11EB074144EB1744AA
:101270004FEA124711EB0C4144EB1C4422EA074CA5
:1012800005FB07F206FB07F70CFB06F605FB0CFC5B
:1012900016EB074642EB174216EB0C4642EB1C4599
:1012A0006A1854F1000148BF7047B619524141EB2A
:1012B0000101A3F10103704795F0000F37D04FEA09
:1012C00011424FEA144721EA024624EA074C02FB86
:1012D00007F106FB07F70CFB06F402FB0CFC14EB12
:1012E000074441EB17414FEA154714EB0C4441EB1F
:1012F0001C4125EA074C02FB07F506FB07F70CFB30
:1013000006F602FB0CFC16EB074645EB174516EB01
:101310000C4645EB1C42121951F1000148BF7047C1
:10132000B619524141EB0101A3F1010370474FEAA5
:1013300014454FEA114724EA054621EA074C05FB0C
:1013400007F106FB07F70CFB06F24FF0000605FB62
:101350000CFC12EB074241EB174112EB0C4251EB34
:101360001C4148BF7047921841EB0101A3F10103F2
:101370007047FEE7704772B6FEE7000070B504469E
:1013800000F0FEF80546601C02D0044800780444D2
:1013900000F0F6F8401BA042FAD370BD0000002018
:1013A0002DE9F84FDFF8B8910024A9F1040B23468A
:1013B0000F2709F1040AABF1040EC9E00125A5408D
:1013C0002A40AA427DD1674ED1F804C0ACEB060892
:1013D000B44532D014DCBCF1030F3AD009DCBCF1C7
:1013E000000F2AD0BCF1010F1CD0BCF1020F31D18B
:1013F0001DE0BCF1110F17D0BCF1120F2AD119E07A
:10140000B8F5881F19D006DCB8F5803F15D0B8F5BF
:10141000801F1FD111E0B8F5001F0ED0B8F5041FD2
:1014200018D10AE0CB6815E0CB681B1D12E0CB6831
:1014300008330FE0CB680C330CE08B682BB1012B29
:101440004FF0080303D0456104E0042302E0056186
:1014500000E00023FF2A01D8064601E000F104065F
:101460004FEA840501D9A5F12005D6F8008007FAD6
:1014700005FC28EA0C0803FA05F548EA0508C6F851
:1014800000804D68ED0062D5374DAE6946F001062B
:10149000AE61AD6924F0030605F001050095334DFA
:1014A00006EB050CDCF80850A607360F07FA06F81D
:1014B00025EA0805DFF8B880404503D14FF0000861
:1014C00017E044E0DFF8AC80404502D14FF001085E
:1014D0000FE0DFF8A480404502D14FF0020808E099
:1014E000DFF89880404502D14FF0030801E04FF04B
:1014F000040808FA06F848EA0508CCF808804D68A0
:10150000D9F80060ED024D4601D5164300E0964340
:101510002E604D68DAF80060AD02554601D51643DD
:1015200000E096432E604D68DBF80060AD035D4639
:1015300001D5164300E096432E604D68DEF800604A
:10154000ED03754601D5164300E096432E60641CFA
:101550000D682A46E5407FF431AFBDE8F88F000002
:10156000080401400000111000100240000001407A
:1015700000080140000C014000100140001401402F
:1015800001488068704700000000002070B504002A
:1015900025D094F83D00002520B984F83C50204621
:1015A00000F04EF9242084F83D002068016821F005
:1015B000010101602068016841F400410160206878
:1015C000016821F40041016000F088FA4D4A616829
:1015D000914201D84C4900E04C49884201D2012097
:1015E00070BD4B492368B0FBF1F15E6826F03F0601
:1015F0000E435E606368934206D94FF49673594375
:101600004FF47A73B1FBF3F12368491C1E6A26F08C
:101610003F06314319626168914210D84900401E6B
:10162000B0FBF1F2521CC2F30B02042A01D20420D7
:1016300022E0B0FBF1F0401CC0F30B001CE0A268FC
:10164000F2B301EBC10303EB0116431EB3FBF6F348
:101650005B1C43F480431B0549D092B301EBC102EC
:1016600002EB0111401EB0FBF1F0401CC0F30B0077
:1016700040F4804040F400402168CA694CF6FF7392
:101680009A431043C861D4E90710014320680268F7
:1016900022F0C00211430160D4E903010143206834
:1016A000826848F2FF339A4311438160D4E905010F
:1016B00008432168CA6822F0FF021043C86001E0B5
:1016C0000EE016E02068016841F001010160256428
:1016D000202084F83D00256384F83E50002070BD32
:1016E00001EB4106431EB3FBF6F35B1CB3E701209D
:1016F000C2E701EB4101401EB0FBF1F0401CC0F31A
:101700000B00B7E7A086010080841E0000093D00A1
:1017100040420F002DE9F84F1F4690468A46044686
:10172000DDF82890FFF72CFF054694F83D002028AF
:101730007FD11923012240492046009500F03AFC50
:10174000002876D194F83C00012872D0012084F85A
:101750003C0020680168C90703D1016841F001011C
:1017600001602068016821F400610160212084F893
:101770003D00102084F83E0000262664C4F8248032
:101780006785608D20852D48E0622B464A4651468C
:10179000204600F095FB90B920684169806900906F
:1017A00036E02A464946204600F0AAFC50B1206C9B
:1017B000042804D12068016841F40071016001200F
:1017C000BDE8F88F606A216800780861606A401C93
:1017D0006062618D491E6185218D491E89B2218516
:1017E00022685369DB435B070BD451B10078106169
:1017F000606A401C6062608D401E6085208D401EC6
:1018000020852A464946204600F0A8FB0028CED174
:10181000208D0028C5D154F83D0B016841F40071BA
:101820000160202004F81E09E67766770020C7E7EC
:10183000FFE70220C4E70000020010000000FFFFE5
:1018400010B586B0002100910191029103910068CA
:101850000F4988421AD10F4CA06940F00800A061DE
:10186000A069694600F008000490C0200090122092
:101870000190032003900848FFF792FDE06940F4CF
:101880000010E061E06900F40010049006B010BDA3
:101890000054004000100240000C014002488168E2
:1018A000027811448160704700000020074810B59D
:1018B000016841F010010160032000F067F80F207B
:1018C00000F006F800F024F8002010BD00200240CF
:1018D00070B50D4D04464FF47A712878B1FBF0F0E5
:1018E0000A490968B1FBF0F000F0BEFA48B9102CC3
:1018F00007D200222146501E00F028F800206C601C
:1019000070BD012070BD0000000000200C00002010
:101910000C4808B5816941F001018161816901F0DC
:1019200001010091C16941F08051C161C06900F0BD
:10193000805000900448416821F0E06141F000715E
:10194000416008BD0010024000000140F0B40E4BA1
:101950001B680C46C3F30223C3F10705042D00D90D
:101960000425191D072901D2002300E0DB1E0126F2
:1019700006FA05F1491E214099409E40761E164008
:101980003143F0BC00F03BBE0CED00E0064900F036
:10199000070208684FF6FF03184040EA0220034A96
:1019A00010430860704700000CED00E00000FA05ED
:1019B0002DE9F0470F46050061D0434E306800F036
:1019C0000700B84209D2306820F007003843306081
:1019D000306800F00700B84251D128683B4C8107BD
:1019E00012D5400703D5606840F4E0606060287855
:1019F000000703D5606840F4605060606068A968C3
:101A000020F0F000084360602878C00728D068689C
:101A1000012810D02168022810D0890700292EDA69
:101A2000616821F0030101436160FFF7A9FD804671
:101A300041F288390DE021688903EFE78901EDE77C
:101A4000FFF79EFDA0EB0801494502D90320BDE840
:101A5000F0876068696800F00C00B0EB810FEFD18F
:101A6000306800F00700B8420BD9306820F007005A
:101A700038433060306800F00700B84201D00120E0
:101A8000E5E72878400705D56068E96820F4E0605C
:101A9000084360602878000706D56068296920F44B
:101AA000605040EAC100606000F028F86168084AB0
:101AB000C1F30311515CC84006490860064800683C
:101AC000FFF706FF0020C2E700200240001002409E
:101AD000942700080C000020040000200448054959
:101AE00000684968044AC1F30221515CC84070474C
:101AF0000C00002000100240A42700080E4A516884
:101B00000E4801F00C03042B11D0082B0FD10C4808
:101B1000C1F38343C903C05C0AD55168084AC1F3C5
:101B20004041921E515C054A5043B0FBF1F07047B2
:101B300004494843704700000010024000127A0038
:101B40008427000800093D002DE9F84F040070D0FB
:101B50002078C04DC00749D06868C0F381000128D3
:101B600007D06868C0F38100022809D16868C00303
:101B700006D52868800339D560680028E7D035E0AD
:101B80006068B0F5803F0BD010B1B0F5A02F11D038
:101B9000286820F480302860286820F4802002E043
:101BA000286840F480302860606890B1FFF7E8FC56
:101BB00006460AE0286840F480202860F0E700BF6D
:101BC000FFF7DEFC801B642873D828688003F7D5F4
:101BD0000CE0FFF7D5FC064605E000BFFFF7D0FCA0
:101BE000801B6428F0D828688003F7D420789A4EA8
:101BF00080074FF001094FF0000839D5686810F0F0
:101C00000C0F07D06868C0F38100022809D168680A
:101C1000C00306D42868800714D52069012808D19C
:101C200010E02069B0B1C6F80090FFF7A9FC0746A4
:101C300005E00AE1FFF7A4FCC01B0228C4D828680D
:101C40008007F7D52868616920F0F80040EAC100F4
:101C500028600DE0C6F80080FFF792FC074604E01C
:101C6000FFF78EFCC01B022823D828688007F7D412
:101C7000207800072CD57948A169D9B1C0F8009027
:101C8000FFF77EFC074604E0FFF77AFCC01B022842
:101C90000FD8686A8007F7D571484FF4FA51006889
:101CA000B0FBF1F0009000BF0098411E0091FAD205
:101CB0000EE080E0C0F80080FFF762FC074604E019
:101CC000FFF75EFCC01B022875D8686A8007F7D44E
:101CD0002078400760D5E8690027C00008D4E8698B
:101CE00040F08050E861E869012700F080500090E2
:101CF0005C480168C90513D40168834641F48071CA
:101D00000160FFF73DFC824606E000BFFFF738FCAC
:101D1000A0EB0A0064284ED8DBF80000C005F5D51A
:101D2000E06801280AD008B1052813D0286A20F0FD
:101D300001002862286A20F0040002E0286A40F0CE
:101D400001002862E06841F2883B98B1FFF718FC77
:101D500082460BE0286A40F004002862EEE700BFEC
:101D6000FFF70EFCA0EB0A0159455AD8286A8007F4
:101D7000F6D50CE0FFF704FC824605E0FFF700FC17
:101D8000A0EB0A0159454CD8286A8007F6D41FB148
:101D9000E86920F08050E861E06988B36968C1F3C0
:101DA0008101022944D00228C6F8608004D0FFF7E0
:101DB000E7FB044638E034E0FFF7E2FB074604E0C7
:101DC000FFF7DEFBC01B02282BD828688001F7D460
:101DD000206AB0F5803F05D16868A16820F4003022
:101DE00008436860D4E908010843696821F4741164
:101DF00008436860C6F86090FFF7C2FB044606E03F
:101E000025E000BFFFF7BCFB001B022809D82868AB
:101E10008001F7D51BE000BFFFF7B2FB001B0228D3
:101E200002D90320BDE8F88F28688001F4D40EE0C1
:101E30000128F7D06868226A00F48031914204D109
:101E4000616A00F47010884201D00120EAE70020A6
:101E5000E8E70000001002400000424280044242D5
:101E60000C0000200070004010B5401EB0F1807FD3
:101E700001D3012010BD4FF0E02460610F216017F5
:101E800000F0BDFB0020A06107202061002010BDF4
:101E9000FEE701684A69D24352050FD46FF48062AD
:101EA0004A61002140F8301F202242738173026989
:101EB00042F0040202610173012070470020704764
:101EC000F8B50446C06A1E460D461746082807D0D6
:101ED000012805D010F5803F02D0206B122804D1D4
:101EE0002068016841F480710160134600224FF0C0
:101EF00001112046009600F05DF840B120680068AE
:101F0000C00502D54FF4007020640320F8BD20699D
:101F1000B0F5804F0ED00620216800EAD51040F0C1
:101F2000F000086133463A460B49204600F08AF833
:101F300078B902E005F0FE0000E0E8B2216808612F
:101F4000054933463A46891F204600F07BF80028B1
:101F5000DCD00120F8BD00000800010070B5164675
:101F60000D4604461EE02046FFF793FF08B101200E
:101F700070BD681C16D0FFF703FB801BA84200D879
:101F800085B920684069C04340070BD5002044F85C
:101F9000300F20216173A073216941F0200121617C
:101FA0002073E4E720684069C0434007DBD4002089
:101FB00070BD00002DE9F047984617460D460446CF
:101FC000C1F30746DDF820902AE000BFB8F1FF3FDB
:101FD00026D0FFF7D5FAA0EB0901414502D8B8F1A8
:101FE000000F1DD12068012E16D0806925EA00005F
:101FF0000004000C12D00020B84211D1002044F897
:10200000300F20216173A073216941F0200121610B
:1020100020730120BDE8F0874069E7E70120EBE786
:102020002068012E0AD0806925EA00000004000C17
:1020300006D00020B842C9D00020EBE74069F3E7A2
:102040000120F7E72DE9F047984616460D4604466D
:102050004FF000094FF0200AC1F3074723E0206842
:102060004069C043400515D42068016841F40071FF
:10207000016021686FF480604861C4F8309084F892
:102080003DA084F83E90216C41F00401216484F865
:102090003C9021E0701C06D0FFF772FAA0EB08001C
:1020A000B04203D816B1012F1FD021E02068012FC4
:1020B00015D0806925EA00000004000C18D000BF8C
:1020C00044F8309F84F80DA084F80E90216941F007
:1020D0002001216184F80C900120BDE8F08740695F
:1020E00025EA00000004000CEAD12068406901E004
:1020F0002068806925EA00000004000CAFD1ECE7FD
:1021000070B516460D4604461EE02046FFF7C1FE98
:1021100008B1012070BD681C16D0FFF731FA801B92
:10212000A84200D885B920684069C04300060BD595
:10213000002044F8300F20216173A073216941F021
:10214000200121612073E4E720684069C043000654
:10215000DBD4002070BD00000D4808B5816941F056
:1021600020018161816901F020010091816941F0C4
:1021700004018161816901F004010091816941F0EC
:1021800008018161806900F00800009008BD00002E
:10219000001002400D4810B50B4901600C49416028
:1021A00000214FF480428160C0E9031241618161E6
:1021B000C1610162FFF7EAF9002803D0BDE81040D1
:1021C000FFF7D9B810BD00000054004014000020F3
:1021D000801A0600FEE7FEE710B56420FFF7CEF890
:1021E000AE2000F089F8D52000F086F8802000F0BD
:1021F00083F8A82000F080F83F2000F07DF8D3207D
:1022000000F07AF8002000F077F8402000F074F831
:102210008D2000F071F8142000F06EF8202000F0FE
:102220006BF8022000F068F8A12000F065F8C820E3
:1022300000F062F8DA2000F05FF8122000F05CF89D
:10224000812000F059F87F2000F056F8D92000F0E6
:1022500053F8F12000F050F8DB2000F04DF840205A
:1022600000F04AF8A42000F047F8A62000F044F857
:10227000BDE81040AF2000F03FB800004FF480618F
:102280000148FEF78DB80000E90000203CB51C783D
:10229000059D203ACDE900455D68E41D5B78E408C2
:1022A000544303FB045200F087F83CBD2DE9F8418C
:1022B0001E46154688460446079F09E033464146B8
:1022C00020460097FFF7E2FF70786D1C2044C4B2EF
:1022D0002A78002AF2D1BDE8F881000008B54FF055
:1022E000FF3200920B46024678210248FFF712FAAD
:1022F00008BD000014000020024948700221014876
:10230000FFF7ECBF120000202DE9FC4180460720BA
:10231000CDE9000301F00704CD08164602FA04F0E7
:102320001F46C2B223464146284600F089F8002CD9
:102330000CD0601EC0B2CDE90007C4F1080026FA37
:1023400000F2681C0023414600F07AF8BDE8FC81E9
:102350002DE9FC4301F007061446CD089846814656
:1023600001F0070106EB080204FA01F0099F082AB0
:1023700016D90721CDE90017C2B23346494628468F
:1023800000F05EF808EB06000938C0B2CDE900079E
:10239000C6F1080024FA00F2681C0023494607E051
:1023A000521ED1B2CDE90017C2B233464946284683
:1023B00000F046F8BDE8FC832DE9FF4F82B01D46D2
:1023C0000F989346C70800F0070088460026019042
:1023D00018E0029800240BEB060A00EB06090DE05A
:1023E00004FB05F0109B10F80A2008EBC400C1B2F2
:1023F00009F0FF00FFF788FF641CE4B2BC42EFD392
:10240000761CF6B2AE42E4D30198002815D005FB45
:1024100007F6002408EBC7070DE01098009031196B
:1024200002981BF801202044F9B2C0B2019BFFF7CB
:102430008FFF641CE4B2AC42EFD306B0BDE8F08F6E
:10244000F0B50828DDE9056419D2802917D20CB14E
:10245000D243D2B2FF25761C05FA06F6C3F1080373
:10246000084F46EA0204DD4007EBC017044B785CD6
:10247000B2432C43AA4320401A7010437854F0BD55
:1024800010000020E900002070B5104D402000240D
:10249000287005F1810600BF04F1B000C0B2FFF75B
:1024A0002BFF0220FFF728FF1020FFF725FF06EB88
:1024B000C4118022681CFDF72EFF81210348FFF71D
:1024C0000DFF641CE4B2082CE6D370BD6800002048
:1024D00030B591B014460D4600F0E0F802460B46C8
:1024E00018A101A8FDF77CFE284600F0D7F80246A7
:1024F0000B4617A106A8FDF773FE204600F0CEF8A4
:1025000002460B4615A10BA8FDF76AFEFFF7B6FEC3
:102510000024154B01AA214620460094FFF7C6FE71
:10252000114B06AA0A2100200094FFF7BFFE0E4BB4
:102530000BAA142100200094FFF7B8FEFFF7A4FFB8
:1025400011B030BD50697463683A20252E326600A0
:10255000526F6C6C203A20252E326600596177202C
:10256000203A20252E326600D42900087047704793
:10257000FFF794B930B58FB028216846FDF732FFD8
:1025800014210AA8FDF72EFF01210804CDE900104F
:102590000024029402250491CDE907504FF4E01085
:1025A00009906846FFF7D0FA08B172B6FEE70F202F
:1025B000CDE90A054FF48060CDE90C4002210AA85C
:1025C0000E94FFF7F5F9002801D072B6FEE70FB0C0
:1025D00030BD7047FEE7490050EAC12018BF042013
:1025E0004A0D18BF40F0010040F2FF72B2EB515F9C
:1025F00008BF40F00200012808BF05207047090706
:10260000090E002804DB00F1E02080F80014704778
:1026100000F00F0000F1E02080F8141D7047303802
:102620000A2801D20120704700207047FFF73EF9C9
:10263000FFF7A0FFFFF790FDFFF7ACFD1420FEF7BA
:102640009DFEFFF7C9FD054C054D4FF07E56224615
:1026500029463046FFF73CFFF9E700000000404004
:1026600000008D4310B500290AD00878002807D053
:1026700005487844FEF76EFA002801D0002010BD0E
:102680000248784410BD00001E040000160400003B
:102690000808A0F500114FEA3101704743004FEAE6
:1026A000D30C4FEA3C0C43401FBF40070CF1605174
:1026B00013F0FE4F70471CF0006F03D100200CF0A8
:1026C000004170470CF0004343EA507010B540EAF7
:1026D000CC0000F00EF800BF000000924FEA0001AD
:1026E000FFF7D6BF4FF000414FF00000A1F50021E9
:1026F00070470EF1020E2EF0030E5EF8044B2442DA
:1027000004D44FEA4102B2F17F4F11D84FEA40039F
:10271000B3F17F4F0CD80ED14FEAD07CB2F17F4F8E
:102720000CEB4C0C0CF1020C08BF4CEBD17C04E020
:102730004FF0080C01E04FEAD17C0CEB4C0324FA7B
:1027400003F404F00704B4F1040C06D20EEB840C7D
:10275000BDE810404CF0010C6047DFE80CF00708C2
:1027600002024FF00040A0F5800010BD0846420074
:1027700018BFD2F1807288BF00F0004010BDFDF795
:1027800034BF010202030405060708090A0B0C0DF9
:102790000E0F1010000000000000000001020304F2
:1027A0000607080900000000010203040000000001
:1027B00000000000002F00000000070007000014C8
:1027C0007F147F1400242A7F2A12006264081323D6
:1027D00000364955225000000503000000001C226D
:1027E0004100000041221C000014083E08140008AB
:1027F000083E0808000000A060000008080808085B
:10280000000060600000002010080402003E5149F2
:10281000453E0000427F4000004261514946002190
:1028200041454B31001814127F10002745454539AA
:10283000003C4A4949300001710905030036494905
:10284000493600064949291E0000363600000000BE
:102850005636000000081422410000141414141409
:1028600000004122140800020151090600324959B2
:10287000513E007C1211127C007F49494936003ECE
:1028800041414122007F4141221C007F4949494189
:10289000007F09090901003E4149497A007F080883
:1028A000087F0000417F4100002040413F01007F40
:1028B00008142241007F40404040007F020C027F0C
:1028C000007F0408107F003E4141413E007F09091E
:1028D0000906003E4151215E007F09192946004644
:1028E000494949310001017F0101003F4040403F1B
:1028F000001F2040201F003F4038403F0063140865
:10290000146300070870080700615149454300003F
:102910007F41410000552A552A55000041417F0062
:102920000004020102040040404040400000010257
:102930000400002054545478007F48444438003840
:102940004444442000384444487F003854545418C8
:1029500000087E0901020018A4A4A47C007F0804DA
:1029600004780000447D4000004080847D00007FAA
:10297000102844000000417F4000007C04180478C7
:10298000007C0804047800384444443800FC2424C3
:1029900024180018242418FC007C080404080048AB
:1029A0005454542000043F444020003C4040207CCC
:1029B000001C2040201C003C4030403C00442810BB
:1029C0002844001CA0A0A07C004464544C4414146F
:1029D0001414141408060000AC270008024000007C
:1029E000000000A00000000005400000000000C83A
:1029F000000000000C4000000000409C00000000AF
:102A0000194000000020BCBE00000000344000005F
:102A1000BFC91B8E00000004B5400000504BCFD052
:102A20006607E2CF010000006C4100003E8251AA1F
:102A3000DFEEA73401000000D9420000DCB5A0E2BF
:102A40003A301F97FFFFFFFFB4450000FD25A0C8E7
:102A5000E9A3C14FFFFFFFFFFF3F00000000008020
:102A600000000000FF3F00000000008000000000A8
:102A7000AC2A000800000020140000002801000813
:102A8000C02A0008140000203C0B0000440100088C
:102A90001C00000043000000F8FFFFFF0C000000D6
:102AA0000E0000000F0000002E00000001000000DA
:102AB000100000000000000000127A00000000007A
:04000005080000ED02
:00000001FF
