:020000040800F2
:100000007005002005010008791E0008311D000858
:10001000751E000819080008F12200080000000001
:10002000000000000000000000000000A91E000801
:100030001D080008000000007D1E0008AB1E00081F
:100040001F0100081F0100081F0100081F01000810
:100050001F0100081F0100081F0100081F01000800
:100060001F0100081F0100081F0100081F010008F0
:100070001F0100081F0100081F0100081F010008E0
:100080001F0100081F0100081F0100081F010008D0
:100090001F0100081F0100081F0100081F010008C0
:1000A0001F0100081F0100081F0100081F010008B0
:1000B0001F0100081F0100081F0100081F010008A0
:1000C0001F0100081F0100081F0100081F01000890
:1000D0001F010008E12200081F0100081F0100089D
:1000E0001F0100081F0100081F010008DFF810D0E1
:1000F00000F080FB00480047352D0008AFF300807A
:10010000700500200648804706480047FEE7FEE7E6
:10011000FEE7FEE7FEE7FEE7FEE7FEE7FEE7FEE7B7
:10012000191F0008ED000008202A04DB203A21FAFC
:1001300002F00021704721FA02F3D040C2F1200200
:100140009140084319467047D2B201E000F8012BF4
:10015000491EFBD270470022F6E710B513460A4647
:1001600004461946FFF7F0FF204610BD421C10F868
:10017000011B0029FBD1801A704780EA010210B5EB
:1001800002F00043400022D04A001FD0010E01EBD4
:100190001261C0F35600C2F3560240F4000042F46C
:1001A0000002A0FB022000047F39140400D0401C90
:1001B00050EA124001D44000491EC2B20C0604EBC2
:1001C000D010401C4008802A02D003E0002010BD5F
:1001D00020F00100002900DA0020184310BD30B4DF
:1001E00080EA010202F0004530F0004221F00040B8
:1001F00013D090B1C30DD40DC2F31601C0F3160095
:10020000E41A41F4000140F400027D34914201D32C
:10021000641C00E04900002C02DA30BC002070476A
:100220004FF400000023914201D3891A0343400890
:100230004FEA4101F7D151B1914202D14FF0004153
:1002400005E002D24FF0010101E06FF0010103EB84
:10025000C450284430BC00F099B92DE9FE4F8046C7
:1002600081EA0300C00F0C46009021F0004123F00A
:100270000045B8EB0200A94105D240462146904610
:100280001C460B46024623F00040104347D0270D82
:10029000C7F30A00C3F30A510290401A01904028A4
:1002A0006BDAC3F3130040F4801B0098924620B130
:1002B0000023D2EB030A63EB0B0B01985946C0F104
:1002C0004002504600F041F906460D465046594658
:1002D000019A00F049F910EB08006141002487EA17
:1002E000115284EAE7731A4340D0009A62B3019A2C
:1002F000012A4FEA075215DC001B61EB02014FF0A7
:10030000004202EA0752CDE90042001C41F580118B
:1003100032462B4600F080F903B0BDE8F08F40462E
:100320002146F9E7001B61EB0201001C41F5801337
:1003300000185B412018A2F5001747EB030140EAC3
:10034000D570B6196D4111E06D084FEA360645EAE1
:10035000C0754FEA0752001B61EB0201001C41F51A
:10036000801149084FEA30000019514132462B46AE
:1003700003B0BDE8F04F00F040B900980122400002
:100380000023D0EB020263EBE073009821464FEAB2
:10039000E074B8EB000061EB0401E9E783F000438F
:1003A0005BE781F0004158E72DE9FE4F81EA030445
:1003B00004F0004421F0004100944FF0000B23F0C2
:1003C000004350EA01045ED052EA03045BD0C3F359
:1003D0000A54C1F30A552C44A4F2F3340194A0FB4F
:1003E0000254C1F3130141F48011C3F3130343F426
:1003F000801301FB024400FB034E840A970A44EA7F
:10040000815447EA8357A4FB076802958D0A05FBD0
:1004100007854FEA932C04FB0C542705029D4FEAF5
:10042000065847EA1637B5EB08056EEB070C870E42
:10043000920E47EA811742EA8312A7FB0201B6EB4C
:100440000B0164EB00042B0D43EA0C335E1844EB04
:100450001C50DA465146E7FB0201C5F313044FEA8C
:100460000B3343EA14534FEA0432019C43EA060378
:10047000A4F10C040294009CCDE900B400F0CCF887
:1004800003B0BDE8F08F00200146F9E79623002273
:10049000114600F084B800F0004230F000400AD06D
:1004A000C10D01F56071C0F3160042EA0151C208A6
:1004B00040071143704700200146704730B50B4696
:1004C000014600202022012409E021FA02F59D4284
:1004D00005D303FA02F5491B04FA02F52844151E58
:1004E000A2F10102F1DC30BD2DE9F05F05460020EC
:1004F00092469B4688460646814640241BE0284695
:10050000414647462246FFF70FFE53465A46C01A59
:10051000914110D311461846224600F016F82D1AC4
:1005200067EB01084F4622460120002100F00DF83C
:1005300017EB00094E41201EA4F10104DFDC484600
:1005400031462A464346BDE8F09F202A04DB203A84
:1005500000FA02F1002070479140C2F1200320FA16
:1005600003F3194390407047202A06DBCB17203A4B
:1005700041FA02F043EAE07306E041FA02F3D040A8
:10058000C2F1200291400843194670470029A8BFD4
:100590007047401C490008BF20F00100704710B4AC
:1005A000B0FA80FC00FA0CF050EA010404BF10BC61
:1005B000704749B1CCF1200421FA04F411FA0CF18E
:1005C00018BF012121430843A3EB0C01CB1D4FEAC7
:1005D00000614FEA102042BF002010BC704700EBC2
:1005E000C35010440029A4BF10BC7047401C4900F0
:1005F00008BF20F0010010BC704710B5141E73F145
:10060000000408DA401C41F1000192185B411A43D2
:1006100001D120F0010010BD2DE9F04D92469B461E
:1006200011B1B1FA81F202E0B0FA80F220329046C4
:10063000FFF78BFF04460F4640EA0A0041EA0B0130
:1006400053465A46084313D0114653EA010019D0C5
:10065000C8F140025046FFF767FD05460E4650467A
:1006600059464246FFF771FF084305D0012004E0D8
:1006700020463946BDE8F08D0020054346EAE07685
:100680002C4337430A986305E40AA0EB08000022D4
:10069000FD0A44EA47540A3002D500200146E9E742
:1006A000010510196941DDE9084500196941BDE8F6
:1006B000F04DA2E72DE9F04D81EA030404F0004B70
:1006C00021F0004514464FF0000A23F0004150EAA3
:1006D000050220D054EA01021DD0C5F30A57024694
:1006E000C5F31303C1F31300C1F30A5640F4801598
:1006F00043F48013A7EB0608101BD64608F2FD381A
:1007000073EB050002D308F1010801E092185B4188
:10071000B8F1000F03DA00200146BDE8F08D00209B
:100720004FF48011064684460EE0171B73EB050755
:1007300005D3121B63EB050306434CEA010C490881
:100740004FEA300092185B4150EA0107EDD152EABE
:10075000030012D082EA040083EA0501084305D0B1
:10076000101BAB4106D20122002306E000224FF00D
:10077000004302E06FF0010253101AEB06004CEB4D
:10078000085110EB0A0041EB0B01BDE8F04DFFF7FB
:1007900034BFC1F30A52C1F3130140F2FF3341F4F5
:1007A00080119A4202DA00200146704740F233433A
:1007B0009A42A2F2334202DC5242FFF7B5BCFFF785
:1007C000C4BE000030B5041E71F1000404DB4FF01C
:1007D0000044404264EB0101141E73F1000405DB88
:1007E0001C464FF00043524263EB0403994208BF9A
:1007F000904230BD064C074D06E0E06840F0010332
:1008000094E8070098471034AC42F6D3FFF772FC27
:100810005C2E00087C2E000800BFFEE7704772B611
:1008200000BFFEE70146002291F82100022808D00F
:100830000420886300BF002081F8200000BF012051
:1008400070470868006820F00E000B6818600868A0
:10085000006820F001000B68186091F8403001201A
:100860009840CB6B5860012081F8210000BF002028
:1008700081F8200000BF1046E2E7000070B5044692
:10088000002594F82100022803D00420A06301254C
:1008900048E02068006820F00E00216808602068A9
:1008A000006820F00100216808601F492068884224
:1008B00001D1012026E01C4914312068884201D171
:1008C00010201FE0184928312068884201D1801586
:1008D00018E015493C312068884201D1801411E0AC
:1008E000114950312068884202D14FF4803009E02C
:1008F0000D4964312068884202D14FF4801001E034
:100900004FF08070084908394860012084F82100C0
:1009100000BF002084F8200000BF606B10B12046AB
:10092000616B8847284670BD0800024070B50446D8
:1009300000F0A0F906462546681C10B1044800786E
:10094000054400BF00F096F9801BA842FAD370BDA1
:100950000C0000202DE9F8470346002294466EE182
:100960004FF0010808FA02F4D1F8008008EA040008
:10097000A0427DD1DFF8DCA2D1F80480A8EB0A09FF
:10098000D0453AD014DCB8F1030F50D009DCB8F1EF
:10099000000F31D0B8F1010F1CD0B8F1020F49D1CE
:1009A00020E0B8F1110F18D0B8F1120F42D11EE0BB
:1009B000B9F5881F25D006DCB9F5803F20D0B9F500
:1009C000801F37D11AE0B9F5001F18D0B9F5041F00
:1009D00030D117E0D1F80CC02DE0D1F80C8008F12F
:1009E000040C28E0D1F80C8008F1080C23E0D1F8C1
:1009F0000C8008F10C0C1EE000BF00BF00BF00BF60
:100A000000BF00BFD1F80880B8F1000F02D14FF04D
:100A1000040C0BE0D1F80880B8F1010F03D14FF0BE
:100A2000080C1C6102E04FF0080C5C6103E04FF021
:100A3000000C00E000BF00BFFF2801D8984601E08D
:100A400003F104084646FF2802D84FEA820803E073
:100A5000A2F108084FEA88084746D6F800804FF010
:100A60000F0909FA07F928EA09080CFA07F900E062
:100A700088E048EA0908C6F80080D1F8048008F048
:100A80008058B8F1805F7DD100BFDFF8CC81D8F805
:100A9000188048F00108DFF8C091C9F81880C846EE
:100AA000D8F8188008F00108CDF8008000BF00BF1A
:100AB0004FEAB9384FEA920958F829504FEA82783C
:100AC0004FEA18794FF00F0808FA09F825EA0805E7
:100AD000DFF88881434502D14FF0000816E0DFF8C7
:100AE0008081434502D14FF001080FE0DFF87481A7
:100AF000434502D14FF0020808E0DFF86C8143451E
:100B000002D14FF0030801E04FF004084FEA827968
:100B10004FEA197908FA09F848EA0505DFF84C8127
:100B20004FEA920948F82950D1F8048008F4801857
:100B3000B8F5801F0AD1DFF83881D8F8008048EA7C
:100B40000008DFF82C91C9F8008009E0DFF8208167
:100B5000D8F8008028EA0008DFF81491C9F800806E
:100B6000D1F8048008F40018B8F5001F10D1DFF8A0
:100B7000008108F10408D8F8008048EA0008DFF88E
:100B8000F09000E05AE009F10409C9F800800DE096
:100B9000DFF8DC8008F10408D8F8008028EA0008B3
:100BA000DFF8CC9009F10409C9F80080D1F804807D
:100BB00008F40038B8F5003F0ED1DFF8B480A8F192
:100BC0000408D8F8008048EA0008DFF8A490A9F1EA
:100BD0000409C9F800800DE0DFF89480A8F104084A
:100BE000D8F8008028EA0008DFF88490A9F1040909
:100BF000C9F80080D1F8048008F48038B8F5803F47
:100C00000ED1DFF86C80A8F10808D8F8008048EA17
:100C10000008DFF85C90A9F10809C9F800800DE030
:100C2000DFF84C80A8F10808D8F8008028EA00080E
:100C3000DFF83C90A9F10809C9F80080521CD1F8EE
:100C4000008028FA02F8B8F1000F7FF489AEBDE801
:100C5000F887000000001110001002400008014059
:100C6000000C014000100140001401400800014048
:100C7000080401400148006870470000040000209B
:100C800070B504460CB9012070BD94F83D0028B938
:100C9000002084F83C00204600F0DAF8242084F894
:100CA0003D002068006820F001002168086020688D
:100CB000006840F40040216808602068006820F463
:100CC00000402168086000F0D5FA05465C4960687C
:100CD000884206D85B48854201D2012007E0002007
:100CE00005E05948854201D2012000E0002001289A
:100CF00000D1C9E75548B5FBF0F62068406820F000
:100D00003F003043216848604D496068884201D8FF
:100D1000701C07E04FF4967070434FF47A71B0FB8B
:100D2000F1F0401C2168096A21F03F010843216865
:100D3000086243496068884214D8681E61684900A7
:100D4000B0FBF1F0401CC0F30B00042801D20420DA
:100D50003DE0681E61684900B0FBF1F0401CC0F343
:100D60000B0034E0A06838B9681E616801EB4101EE
:100D7000B0FBF1F0401C0AE0681E616801EBC102A3
:100D800002EB0111B0FBF1F0401C40F48040C0F3D5
:100D90000B0008B901201AE0A06848B9681E616814
:100DA00001EB4101B0FBF1F0401CC0F30B000CE083
:100DB000681E616801EBC10202EB0111B0FBF1F0AA
:100DC000401CC0F30B0040F4804040F40040216818
:100DD000C9694CF6FF72914308432168C861D4E9A0
:100DE000070108432168096821F0C0010843216810
:100DF0000860D4E9031008432168896848F2FF328B
:100E00009143084321688860D4E9050108432168BB
:100E1000C96821F0FF0108432168C86020680068A4
:100E200040F001002168086000202064202084F840
:100E30003D000020206384F83E0000BF24E700004E
:100E4000A086010080841E0000093D0040420F0082
:100E500010B586B0044600200290039004900590DF
:100E60003049206888422FD100BF2F48806940F068
:100E700008002D4988610846806900F0080001904B
:100E800000BF00BF4FF44070029012200390032077
:100E9000059002A92548FFF75DFD00BF2449486879
:100EA00040F0E06040F00200486000BF00BF1E4814
:100EB000C06940F400101C49C8610846C06900F4CC
:100EC0000010019000BF2AE01A492068884226D10C
:100ED00000BF1548806940F0080013498861084642
:100EE000806900F00800019000BF00BF4FF440602F
:100EF0000290122003900320059002A90B48FFF7EF
:100F000029FD00BF0848C06940F480000649C86157
:100F10000846C06900F48000019000BF00BF06B021
:100F200010BD00000054004000100240000C0140C1
:100F30000000014000580040034800680349097858
:100F40000844014908607047040000200C0000209C
:100F500010B50848006840F01000064908600320FA
:100F600000F0A8F80F2000F007F800F02BF80020A0
:100F700010BD00000020024070B504460E48007805
:100F80004FF47A71B1FBF0F00C490968B1FBF0F550
:100F9000284600F0F9FB08B1012070BD102C07D2E3
:100FA00000222146501E00F047F80548046001E089
:100FB0000120F2E70020F0E70C00002010000020E4
:100FC0000800002008B500BF1148806940F001000A
:100FD0000F4988610846806900F00100009000BF59
:100FE00000BF00BF0846C06940F08050C861084695
:100FF000C06900F08050009000BF00BF00BF0549ED
:10100000486820F0E06040F00070486000BF08BD14
:10101000001002400000014001460846002809DB9C
:1010200000F01F0301229A4043099B0003F1E023D3
:10103000C3F8002100BF70472DE9F05F80460D46E0
:101040001646002701F066F9074639462A46334618
:1010500001F00700C0F1070ABAF1040F02D94FF0FE
:10106000040A01E0C0F1070AD14600F1040ABAF10E
:10107000070F02D24FF0000A01E0A0F1030AD446A4
:101080004FF0010A0AFA09FAAAF1010A0AEA020A69
:101090000AFA0CFA4FF0010B0BFA0CFBABF1010B47
:1010A0000BEA030B4AEA0B042146404601F03AF9E9
:1010B000BDE8F09F00BF00F00702064B19684FF62D
:1010C000FF031940044B0B4343EA0221014B196013
:1010D00000BF70470CED00E00000FA0570B5044653
:1010E0000D460CB9012070BD5A48006800F0070099
:1010F000A8420ED25748006820F0070028435549FF
:1011000008600846006800F00700A84201D00120EE
:10111000E9E7207800F0020002281DD1207800F0D5
:101120000400042805D14C48406840F4E0604A4976
:101130004860207800F00800082805D1464840683B
:1011400040F46050444948604348406820F0F00053
:10115000A168084340494860207800F0010078B356
:101160006068012806D13C48006800F4003090B95E
:101170000120B8E76068022806D13748006800F00F
:10118000007040B90120AEE73348006800F002006B
:1011900008B90120A7E73048406820F003006168E3
:1011A00008432D494860FFF765FD064609E0FFF753
:1011B00061FD801B41F28831884202D9032092E709
:1011C00007E02548406800F00C006168B0EB810F33
:1011D000EDD12048006800F00700A8420ED91D4854
:1011E000006820F0070028431A4908600846006894
:1011F00000F00700A84201D0012074E7207800F039
:101200000400042807D11448406820F4E060E16835
:10121000084311494860207800F00800082808D1E8
:101220000D48406820F46050216940EAC1000A4935
:10123000486000F03FF808494968C1F30311074AC4
:10124000515CC8400649086006480068FFF794FEF4
:10125000002048E70020024000100240422E000813
:1012600010000020080000200148006870470000BE
:101270001000002000B5FFF7F7FF04494968C1F3EB
:101280000221034A515CC84000BD0000001002402A
:10129000522E000800B5FFF7E7FF04494968C1F383
:1012A000C221034A515CC84000BD0000001002404A
:1012B000522E000870B500210022002400230020D7
:1012C000134D696801F00C05F5B1042D02D0082D0D
:1012D00019D101E00F4819E00F4DC1F38346AB5D12
:1012E00001F4803555B10A4D6D68C5F340450B4E8C
:1012F000725D084D5D43B5FBF2F402E0084D03FB5F
:1013000005F4204602E000BF024800BF00BF70BDE8
:101310000010024000127A00302E0008402E000813
:1013200000093D00F8B504460CB90120F8BD20784D
:1013300000F00100002878D0F848406800F00C0068
:1013400004280CD0F548406800F00C00082811D1A2
:10135000F248406800F48030B0F5803F0AD1EF4891
:10136000006800F4003000285FD0606800285CD17D
:101370000120DBE700BF6068B0F5803F06D1E74899
:10138000006840F48030E549086028E0606858B99A
:10139000E248006820F48030E049086008460068B0
:1013A00020F4802008601AE06068B0F5A02F0BD10F
:1013B000DA48006840F48020D84908600846006890
:1013C00040F4803008600AE0D448006820F480309F
:1013D000D24908600846006820F48020086000BFF9
:1013E000606888B1FFF746FC054606E0FFF742FC5F
:1013F000401B642801D9032098E7C848006800F41E
:1014000000300028F2D010E0FFF734FC054606E07B
:10141000FFF730FC401B642801D9032086E7BF4852
:10142000006800F400300028F2D1207800F00200BB
:10143000022857D1B948406800F00C0050B1B748B5
:10144000406800F00C00082818D1B448406800F447
:10145000803098B9B148006800F0020020B12069DE
:10146000012801D0012061E7AC48006820F0F800B5
:10147000616940EAC100A949086033E02069E8B128
:101480000120A7490860FFF7F5FB054606E0FFF7D6
:10149000F1FB401B022801D9032047E79F48006861
:1014A00000F002000028F2D09C48006820F0F8000C
:1014B000616940EAC1009949086013E00020984939
:1014C0000860FFF7D7FB054606E0FFF7D3FB401B9C
:1014D000022801D9032029E79048006800F00200A3
:1014E0000028F2D1207800F0080008282DD1A0694A
:1014F000B8B101208B490860FFF7BCFB054606E048
:10150000FFF7B8FB401B022801D903200EE78348F0
:10151000406A00F002000028F2D0012000F0B0FC88
:1015200013E000207F490860FFF7A4FB054606E0B2
:10153000FFF7A0FB401B022801D90320F6E67748FD
:10154000406A00F002000028F2D1207800F0040088
:10155000042873D100277148C06900F0805070B929
:1015600000BF6E48C06940F080506C49C8610846B1
:10157000C06900F08050009000BF00BF01276A489A
:10158000006800F48070B0B96748006840F480706B
:1015900065490860FFF76EFB054606E0FFF76AFB4A
:1015A000401B642801D90320C0E65F48006800F4AE
:1015B00080700028F2D000BFE068012806D15748AB
:1015C000006A40F001005549086227E0E06858B918
:1015D0005248006A20F00100504908620846006A3B
:1015E00020F00400086219E0E06805280BD14B48A0
:1015F000006A40F00400494908620846006A40F069
:10160000010008620AE04548006A20F001004349F1
:1016100008620846006A20F00400086200BFE06823
:10162000A0B1FFF727FB054609E0FFF723FB401BAE
:1016300041F28831884202D9032077E622E0374818
:10164000006A00F002000028EFD012E0FFF712FB62
:10165000054608E0FFF70EFB401B41F28831884247
:1016600001D9032062E62D48006A00F0020000283C
:10167000F0D1012F05D12948C06920F080502749B9
:10168000C86100BFE069C8B32448406800F00C009E
:10169000082860D0E069022848D100202049086667
:1016A000FFF7E8FA054606E0FFF7E4FA401B0228D8
:1016B00001D903203AE61948006800F000700028BC
:1016C000F2D1206AB0F5803F07D11448406820F479
:1016D0000030A168084311494860D4E90801084373
:1016E0000E49496821F4741108430C4948600120EF
:1016F0000B490866FFF7BEFA054607E03DE0FFF735
:10170000B9FA401B022801D903200FE603480068FC
:1017100000F000700028F2D02FE00000001002401E
:101720000000424280044242007000400020144900
:101730000866FFF79FFA054606E0FFF79BFA401B95
:10174000022801D90320F1E50E48006800F000707E
:101750000028F2D111E0E069012800D1E6E509484E
:10176000466806F48031206A814204D106F4701183
:10177000606A814201D00120D8E50020D6E5000052
:10178000000042420010024070B504462546681E23
:10179000B0F1807F01D301200FE0681E4FF0E021FF
:1017A00048610F214FF0FF3000F0BCFD00204FF0EA
:1017B000E021886107200861002070BD70477047F4
:1017C0002DE9F84F0446206805682068C66820683F
:1017D00047694FF00009CA4605F00F09B9F1000F3B
:1017E0000AD105F0200038B106F0200020B12046D3
:1017F00000F0E3FBBDE8F88FB9F1000F7BD007F0F4
:10180000010018B906F49070002874D005F00100AA
:1018100030B106F4807018B1606C40F00100606473
:1018200005F0040030B107F0010018B1606C40F021
:101830000200606405F0020030B107F0010018B149
:10184000606C40F00400606405F0080048B106F0E8
:10185000200010B907F0010018B1606C40F00800DA
:101860006064606C002845D005F0200028B106F0C7
:10187000200010B1204600F0A0FB20684069C0F3B2
:10188000801A606C00F0080010B9BAF1000F2CD07B
:10189000204600F04CFB2068406900F0400000B397
:1018A00000BF00BF2168143151E8001F21F0400043
:1018B0002168143141E80002002AF3D100BFE06B37
:1018C00050B17748E16B4863E06BFEF7D7FF88B112
:1018D000E06B416B88470DE02046FFF770FF09E0A1
:1018E00009E02046FFF76BFF04E02046FFF767FFA3
:1018F000002060647EE7206B012877D105F010009E
:10190000002873D006F010000028FAD000BF002095
:10191000009020680068009020684068009000BF38
:1019200000BF2068406900F0400000285FD0E06BF5
:10193000006840681FFA80F8B8F1000F55D0A08DFC
:10194000404552DDA4F82E80E06B8069202843D00A
:1019500000BF00BF21680C3151E8001F21F48070E6
:1019600021680C3141E80002002AF3D100BF00BF1A
:1019700000BF2168143151E8001F21F001002168E7
:10198000143141E80002002AF3D100BF00BF00BFBC
:101990002168143151E8001F21F040002168143102
:1019A00041E80002002AF3D100BF202084F8420061
:1019B0000020206300BF00BF21680C3151E8001FE8
:1019C00021F0100021680C3141E80002002AF3D117
:1019D00000BFE06BFEF726FF02206063A08DE28D62
:1019E000801A81B22046FFF7E9FE03E742E0A08DAE
:1019F000E18D401A1FFA80F8E08DD0B3B8F1000FE6
:101A000037D000BF00BF21680C3151E8001F21F41E
:101A1000907021680C3141E80002002AF3D100BF28
:101A200000BF00BF2168143151E8001F21F0010000
:101A30002168143141E80002002AF3D100BF2020C0
:101A400084F842000020206300BF00BF21680C31F1
:101A500051E8001F21F0100021680C3141E800021C
:101A6000002AF3D100BF0220606341462046FFF701
:101A7000A5FEBFE605F0800030B106F0800018B189
:101A8000204600F0B7FBB5E605F0400030B106F0A7
:101A9000400018B1204600F080FAABE600BFA9E68E
:101AA0001B1F000810B504460CB9012010BDA06929
:101AB00000B100E000BF94F8410028B9002084F88C
:101AC0004000204600F02AF8242084F841002068D5
:101AD000C06820F400502168C860204600F0ECFA8D
:101AE0002068006920F490402168086120684069FE
:101AF00020F02A00216848612068C06840F4005046
:101B00002168C86000206064202084F8410084F8C7
:101B100042000020606300BFC8E7000010B586B037
:101B200004460020029003900490059037492068F5
:101B3000884237D100BF3648806940F4804034493C
:101B400088610846806900F48040019000BF00BFB2
:101B500000BF0846806940F004008861084680693B
:101B600000F00400019000BF00BF48150290022061
:101B700003900320059002A92648FEF7EBFE4FF4E0
:101B80008060029000200390049002A92148FEF793
:101B9000E1FE002211462520FFF74EFA2520FFF72F
:101BA0003BFA31E01C49206888422DD100BF18481B
:101BB000C06940F400301649C8610846C06900F4A5
:101BC0000030019000BF00BF00BF0846806940F0B0
:101BD000040088610846806900F00400019000BF9D
:101BE00000BF04200290022003900320059002A968
:101BF0000848FEF7AFFE08200290002003900490F2
:101C000002A90448FEF7A6FE06B010BD0038014048
:101C100000100240000801400044004070B5044636
:101C20000D46164694F8420020280BD105B10EB996
:101C3000012070BD0020206332462946204600F076
:101C4000B9FAF6E70220F4E710B5044606488442E4
:101C500008D10648007800F0DDFF01220349024860
:101C6000FFF7DCFF10BD0000D000002000000020C6
:101C70002DE9F84F04460E46174699464FF0000AE4
:101C800094F84100202850D106B117B90120BDE8D1
:101C9000F88F00206064212084F84100FEF7EAFFFD
:101CA0008246A784E784A068B0F5805F04D12069EC
:101CB00010B90025B04602E035464FF000081EE09E
:101CC0005346002280212046CDF8009000F0C2FA51
:101CD00020B1202084F841000320D8E745B9B8F8A6
:101CE0000000C0F308002168486008F1020803E022
:101CF0002878216848606D1CE08C401EE084E08CF0
:101D00000028DDD15346002240212046CDF8009026
:101D100000F0A0FA20B1202084F841000320B6E7AB
:101D2000202084F841000020B1E70220AFE770478F
:101D300000BFFEE708B500BF1348806940F02000EF
:101D4000114988610846806900F02000009000BFBA
:101D500000BF00BF0846806940F004008861084663
:101D6000806900F00400009000BF00BF00BF08467B
:101D7000806940F0080088610846806900F008002A
:101D8000009000BF00BF08BD0010024010B50B4816
:101D90000B4908600B484860002109488160C16018
:101DA0004FF480410161002141618161C1610162A3
:101DB000FEF766FF08B1FEF732FD10BD005400408B
:101DC00028000020A086010010B50B480B490860D0
:101DD0000B484860002109488160C1604FF4804190
:101DE0000161002141618161C1610162FEF748FF2B
:101DF00008B1FEF714FD10BD005800407C00002023
:101E0000801A060010B50B480B4908604FF41650B5
:101E10004860002108488160C16001610C21416176
:101E200000218161C161FFF73DFE08B1FEF7F7FCBB
:101E300010BD000000380140D000002010B50B4854
:101E40000B4908604FF4E130486000210848816088
:101E5000C16001610C21416100218161C161FFF715
:101E600021FE08B1FEF7DBFC10BD0000004400407D
:101E70001801002000BFFEE700BFFEE7704700002A
:101E800008B508490968C9084FF47A72B1FBF2F144
:101E90004143009100BF00BF00994A1E00920029F3
:101EA000F9D108BD10000020704710B5FFF744F8C5
:101EB00010BD00B58FB0282105A8FEF74CF91421FC
:101EC0006846FEF748F901200590000406900020BE
:101ED00007900120099002200C90C1030D914FF44E
:101EE000E0110E9105A8FFF71DFA08B1FEF797FC67
:101EF0000F20009002200190002002904FF480609B
:101F000003900020049002216846FFF7E7F808B12B
:101F1000FEF785FC0FB000BD704770B505466C6AD2
:101F20000020E085E0842046FFF749FC70BD00BF3B
:101F300000BF02680C3252E8002F22F49071026850
:101F40000C3242E80013002BF3D100BF00BF00BFEA
:101F50000268143252E8002F22F0010102681432A4
:101F600042E80013002BF3D100BF016B01290ED111
:101F700000BF00BF02680C3252E8002F22F01001AF
:101F800002680C3242E80013002BF3D100BF20217D
:101F900080F8421000210163704710B504462068A4
:101FA000C06820F040002168C860202084F841000B
:101FB0002046FFF7BCFE002010BDF8B5044694F89B
:101FC0004200222875D1A068B0F5805F0CD120694D
:101FD00050B90025A66A20684068C0F30800308028
:101FE000A06A801CA06215E0A56A0026A068B0F572
:101FF000805F03D0A06828B9206918B920684068BC
:10200000287004E02068406800F07F002870A06A13
:10201000401CA062E08D401E80B2E085002846D1C1
:102020002068C06820F020002168C8602068C0686F
:1020300020F480702168C8602068406920F00100A9
:1020400021684861202084F8420000206063206BF2
:10205000012826D10020206300BF00BF21680C3179
:1020600051E8001F21F0100021680C3141E8000206
:10207000002AF3D100BF2068006800F0100010288B
:102080000AD100BF002000902068006800902068FE
:102090004068009000BF00BFA18D2046FFF78EFB77
:1020A00002E02046FFF7D0FD0020F8BD01E000204F
:1020B000FBE70220F9E7000070B5044621680969D2
:1020C00021F44051E2681143226811612269A1683C
:1020D0001143626941EA02052168C96841F20C6254
:1020E000914329432268D1602168496921F44071F4
:1020F000A2691143226851612D4A2168914202D19F
:10210000FFF7C8F801E0FFF7B5F800EBC00101EBFD
:10211000001162689200B1FBF2F100EBC00202EB29
:10212000001263689B00B2FBF3F26423B2FBF3F28C
:1021300002EBC20303EB0212A1EB8201322202EB9B
:1021400001116422B1FBF2F101F0F00100EBC002D9
:1021500002EB001263689B00B2FBF3F26423B2FB54
:10216000F3F201EB021200EBC00101EB0011636816
:102170009B00B1FBF3F100EBC00303EB00136668B7
:10218000B600B3FBF6F36426B3FBF6F303EBC3062A
:1021900006EB0313A1EB8301322303EB011164234C
:1021A000B1FBF3F101F00F0111442268916070BDA1
:1021B0000038014010B5034699629A85DA850020FF
:1021C0005864222083F84200186928B11868C06852
:1021D00040F480701C68E0601868406940F00100BD
:1021E0001C6860611868C06840F020001C68E060EE
:1021F000002010BD014691F84100212828D18868AF
:10220000B0F5805F0BD1086948B90A6A1088C0F33D
:1022100008000B685860086A801C086205E00B6AB9
:10222000581C086218780B685860C88C401E80B231
:10223000C88458B90868C06820F080000B68D8606E
:102240000868C06840F040000B68D8600020704704
:102250000220FCE72DE9F84304460D461746984650
:10226000089E31E0701C70B3FEF704FDA0EB08007F
:10227000B04200D816B90320BDE8F8832068C068D2
:1022800000F00400F8B1802D1ED0402D1CD0206835
:102290000068C0F3C000B0B100BF0020009020680B
:1022A0000068009020684068009000BF00BF204692
:1022B000FFF73DFE0820606400BF002084F8400066
:1022C00000BF0120D8E7FFE7206800682840A84247
:1022D00001D1012000E00020B842C3D00020CBE7AC
:1022E00010B50248FFF76CFA10BD0000D0000020C6
:1022F00000BFFEE70FB4054B10B503A9044A0298CE
:1023000000F0F6F810BC5DF814FB0000F92B000893
:102310002400002002480068C0F30220704700003B
:102320000CED00E010B5002804DB0A07130E054A87
:10233000135406E00A07140E034A00F00F031B1F94
:10234000D45410BD00E400E018ED00E002E008C83D
:10235000121F08C1002AFAD170477047002001E01F
:1023600001C1121F002AFBD1704700002DE9FF5F59
:1023700082B00021DDE90430020DDDF840B00343F6
:1023800018D044F61050A2F2FF32424315141198AF
:1023900001281FD0A5EB0B00401C5FEA000A4FF09C
:1023A00000064E4FDFF83891B046504615D5CAF1B9
:1023B000000413E0119801244AA3012801D16FEA17
:1023C0000B010298119AC0E90031C0E9024206B03F
:1023D000BDE8F09FCBF10000DFE704460021404A52
:1023E000491842EB0450CDE9001012E0E00707D095
:1023F00032463B4640464946FDF7D6FF8046894671
:1024000032463B4610461946FDF7CEFF06460F46BC
:102410006410002CEAD1DDE90401DDE90023BAF102
:10242000000F06DAFDF7C0FF42464B46FDF7BCFF42
:1024300005E0FEF73FF942464B46FEF73BF90446FE
:102440000E460022284BFEF7BDF903D84FF0FF30AF
:10245000014607E00022254B20463146FDF7FDFEF0
:10246000FEF797F9102409E0002C0ADB0A2200236A
:10247000FEF73AF8039B30321A55641E50EA010207
:10248000F2D1641C039AC4F111031444119A012A75
:1024900003D0012208430DD10AE0084304D00020F4
:1024A0004FF0110B119072E7A3EB0B056D1E0DE0C1
:1024B0005B4504DD4FF0000205F1010504E003DA9D
:1024C0004FF00002A5F10105002AECD00298119905
:1024D000C0E90231C0E9004579E70000000014407E
:1024E0000000F03F300000000000F0430000E03F3B
:1024F0002DE9FF4F95B09A46884606460025EEE145
:10250000252877D100242746F94A0121039400E0C9
:10251000044316F8013F203B01FA03F01042F7D1C3
:1025200030782A2811D06FF02F033078A0F13002D4
:10253000092A16D8039A44F0020402EB820203EB44
:1025400042021044761C0390EFE758F8042B0392E4
:10255000002A03DA504244F40054039044F0020489
:10256000761C30782E2816D116F8010F44F004049A
:102570002A280DD06FF02F023078A0F13003092BFC
:1025800009D807EB870302EB4303C718761CF3E770
:1025900058F8047B761C30786C280FD006DC4C2869
:1025A00017D068280DD06A2814D104E0742810D000
:1025B0007A280FD10DE044F400140AE044F48014AA
:1025C00001E044F440147278824202D104F5801490
:1025D000761C761C307866280BD013DC582877D010
:1025E00009DC002875D04528F6D04628F4D04728C5
:1025F0001AD193E118E0632835D0642879D0652892
:1026000012D18BE1702873D008DC6728F1D06928DB
:102610006FD06E280DD06F2806D1ACE073282CD077
:10262000752874D0782853D05246179990476D1C5E
:1026300054E1C4F30250022809D003280DD0D8F881
:10264000001004280DD00D6008F1040846E1D8F808
:102650000010EA17C1E90052F6E7D8F800100D8023
:10266000F2E70D70F0E718F8041B8DF80010002059
:102670008DF80100EB46012003E058F804BB4FF051
:10268000FF3061074FF0000102D40DE009F10101B4
:102690008946B9420FDA8145F8DB1BF80910002999
:1026A000F4D108E009F1010189468142FADB1BF807
:1026B00009100029F6D103985346A0EB09072146DB
:1026C0003846179A00F080FA284400EB090507E025
:1026D00044E008E10DE01BF8010B524617999047C2
:1026E000B9F10109F7D2534621463846179AF2E06C
:1026F00039E00A21C4F302524FF0000B0091022A84
:1027000006D058F8040BC117032A09D00AE023E0C9
:1027100008F1070020F00702F2E80201904605E008
:1027200000B2C117042A01D140B2C117002906DA4C
:102730000A460021404261EB02012D2202E02205FF
:1027400004D52B228DF80420012203E0E20701D0FA
:102750002022F7E7914657E00A2100E010214FF0D0
:10276000000B00910BE010214FF0000B44F004042B
:102770000827009103E008204FF0000B0090C4F3FD
:102780000252022A05D058F8040B0021032A08D06F
:1027900008E008F1070020F00702F2E80201904685
:1027A00003E080B2042A00D1C0B24FF00009220732
:1027B0002AD53278702A07D0DDF800C08CF0100CD2
:1027C0005CEA0B0C05D00EE040228DF804200122BB
:1027D00008E050EA010306D030238DF804308DF86C
:1027E000052002229146009B83F0080353EA0B0365
:1027F0000AD150EA010201D1620705D530228DF8D5
:1028000004204FF001097F1E3278582A04D039A2E3
:102810000C920CAA02920BE03BA2F9E75B46009AED
:10282000FDF762FE0C9B9B5C029A521E0292137093
:1028300050EA0102F2D1029804A9081A00F1200B13
:10284000600702D524F4803400E001275F4502DDF3
:10285000A7EB0B0000E0002000EB0B0100900398B9
:102860004944401A0390E00306D453462146179A80
:10287000039800F0A9F90544002706E001A8524694
:10288000C05D179990476D1C7F1C4F45F6DBE00338
:102890000CD553462146179A039800F095F9054444
:1028A00004E030205246179990476D1C0099481E4D
:1028B00000900029F5DC08E0029802995246007861
:1028C000491C0291179990476D1CBBF10001ABF1B7
:1028D000010BF1DC5BE100F065F90544761C307812
:1028E00000287FF40DAE19B02846BDE8F08F000037
:1028F00009280100303132333435363738396162D6
:102900006364656600000000303132333435363799
:10291000383941424344454600000000600700D476
:10292000062708F1070020F00700F0E802238046A0
:1029300003F0004C5FEA0C0001D097A009E02005ED
:1029400001D596A005E0E00701D095A001E0AFF227
:102950004C001390307823F0004365280CD006DC3F
:10296000452809D046281DD047287FD13BE066285E
:1029700018D067287AD136E00021112F01DB112011
:1029800000E0781CCDE9000104A90CA8FFF7EEFCDB
:10299000DDE90D010C9A4FF0000B07F101091092CF
:1029A00000914EE04FF000400097CDE9011004A9DE
:1029B0000CA8FFF7DBFCDDE90D020C9B0F994FF033
:1029C000000B91461093009211B9791C00EB01099C
:1029D000B7EB090003D4C0F1FF3B07F10109A9EBF4
:1029E0000700019042E0012F00DA01270021112F9A
:1029F00001DD112000E03846CDE9000104A90CA852
:102A0000FFF7B4FCDDE90D010C9A00914FF0000BCB
:102A1000B946109221070FD4009A4A4503DA91462D
:102A200001E0A9F10109B9F1010F05DD109AA9F141
:102A30000101515C3029F4D0B84202DA10F1040FE0
:102A400003DA0121CDE9011010E0002803DC834402
:102A5000A9EB000102E0411C494500DD8946A0EBDD
:102A60000B00401C01904FF000400290200705D45D
:102A70000198484502DB4FF0FF30019000208DF8AF
:102A80004B0002980DF14B07B0F1004F25D002200A
:102A90000C902B200D90029800280CDA40420290F6
:102AA0002D200D9007E00A210298FDF707FD303137
:102AB000029007F8011D0C99481E0C900029F2DCC9
:102AC00002980028EFD1791E0D980870307800F038
:102AD000200040F0450007F8020D11A8C01BC01DE2
:102AE00002901398007800B1012000EB09010198D1
:102AF00001EBE071029801440398401A401E0390D4
:102B0000E00306D453462146179A039800F05CF878
:102B100005441398007818B15246179990476D1CD8
:102B2000E00323D553462146179A039800F04CF84A
:102B300005441BE0BBF1000F07DB0098584504DD9E
:102B40001098179910F80B0001E0179930205246A1
:102B5000904701980BF1010B401E05F10105019012
:102B600004D12E205246179990476D1CB9F10001EF
:102B7000A9F10109DEDC05E017F8010B52461799AF
:102B800090476D1C0299481E02900029F4DC5346C0
:102B90002146179A03989EE62D0000002B000000A6
:102BA000200000002DE9F041044600251E4617468E
:102BB000880404D405E039462020B0476D1C641E0B
:102BC000F9D52846BDE8F0812DE9F04104460025FD
:102BD0001E469046C80301D5302700E02027880410
:102BE00004D505E041463846B0476D1C641EF9D552
:102BF0002846BDE8F081000013B50C464FF0FF33C6
:102C0000012269460248FFF733F800981CBD000016
:102C1000180100202DE9F041044600263E480078C6
:102C200058B9552C75D13D483D4909784454012087
:102C3000394908703A4908706BE037480078012834
:102C40000BD1532C65D135483549097844540220BD
:102C500031490870324908705BE02F48007802283B
:102C600057D12F4801780078401C2D4A10702B480E
:102C70004454104600780B284BD1002505E0274826
:102C8000405D3044C6B2681CC5B20A2DF7DB23484C
:102C9000807AB04238D121498978204AD27841EAF5
:102CA0000220FDF7F3FB80464FF08E41FDF797FAC7
:102CB00007461C49FDF761FA1B4908601749097965
:102CC000164A527941EA0220FDF7E0FB80464FF0B8
:102CD0008E41FDF784FA07461249FDF74EFA134973
:102CE00008600E4989790D4AD27941EA0220FDF740
:102CF000CDFB80464FF08E41FDF771FA074609493A
:102D0000FDF73BFA0A4908600020034908700449AE
:102D10000870BDE8F0810000140000206001002070
:102D20001500002000003443180000201C00002083
:102D30002000002088B0FEF70BF9FFF7BAF8FEF785
:102D4000F9FFFFF723F8FFF73FF8FFF75BF8FFF70E
:102D500075F801221B491C48FEF760FF1BA30FCB2F
:102D6000CDE90623CDE9040104A8FDF7FFF984B2FB
:102D70004FF47A73224604A91848FEF779FF18A089
:102D8000FFF7B8FA1CE06420FDF7D0FD1948006891
:102D9000FDF781FB04460D4617480068FDF77BFBF5
:102DA00006460F4615480068FDF775FB804642460B
:102DB0000B4613A0CDE90067CDE90245FFF79AFA6B
:102DC000E1E7000000000020D00000205379737478
:102DD000656D205374617274210D0A001801002082
:102DE00054657374696E67207072696E74662E2EF6
:102DF0002E0D0A0018000020200000201C000020DA
:102E000050697463683A20252E316620A1E32C2096
:102E10005961773A20252E316620A1E32C20526F8C
:102E20006C6C3A20252E316620A1E30D0A000000CB
:102E300002030405060708090A0B0C0D0E0F1010FB
:102E40000102000000000000000001020304060768
:102E50000809000000000102030400007C2E0008A5
:102E600000000020280000004C230008A42E0008C9
:102E700028000020480500005C2300080000000036
:102E800000000000100000000100000000127A00A5
:102E90000000000000000000000000000000000032
:042EA000000000002E
:04000005080000ED02
:00000001FF
